:100000000C9446000C94B1000C94B1000C94B10017
:100010000C94B1000C94B1000C94B1000C94B1009C
:100020000C94B1000C94B1000C94B1000C94B1008C
:100030000C94B1000C94B1000C94B1000C94B1007C
:100040000C94B1000C94B1000C94B1000C94B1006C
:100050000C94B1000C94B1000C94B1000C94B1005C
:100060000C94B1000C94B1000C94B1000C94B1004C
:100070000C94B1000C94B1000C94B1000C94B1003C
:100080000C94B1000C94B1000C94B10011241FBE6B
:10009000CFEFD0E1DEBFCDBFECE8F0E040E019C02B
:1000A000B791A79137912791079107FD0EC09791BE
:1000B0008791EF01F92FE82F0BBF07900D92A21740
:1000C000B307D9F7FE011BBE04C01D92A217B307E8
:1000D000E1F7EC38F40721F70E948A000C947000D5
:0400E000F894FFCFC2
:1000E40080917100887F803659F484EC8093740089
:1000F400809171008823E4F7809173000E94AD0021
:1001040080917100887F803811F4109273000895F3
:1001140082E090E00E94980083E390E00E94A400B3
:0C01240084E4809374000E947200FDCF00
:10013000880F8093720084E08093740010927100A5
:080140008CE08093700008952B
:100148009093900089B988E18AB986E080939500F8
:02015800089508
:08015A005D9BFECF8CB90895F6
:040162000C940000F9
:00000001FF
