:100000000C9446000C94B5000C94B5000C94B5000B
:100010000C94B5000C94B5000C94B5000C94B5008C
:100020000C94B5000C94B5000C94B5000C94B5007C
:100030000C94B5000C94B5000C94B5000C94B5006C
:100040000C94B5000C94B5000C94B5000C94B5005C
:100050000C94B5000C94B5000C94B5000C94B5004C
:100060000C94B5000C94B5000C94B5000C94B5003C
:100070000C94B5000C94B5000C94B5000C94B5002C
:100080000C94B5000C94B5000C94B50011241FBE5F
:10009000CFEFD0E1DEBFCDBF0E94A0000C94500096
:0400A000F894FFCF02
:1000A4000E94A900E1E7F0E020819081287F31E0FF
:1000B400203109F030E0987F81E0983009F080E049
:1000C400832B21F082E090E00E948B0080917100EC
:1000D400887F883119F484E60E949600809171002B
:1000E400887F883231F480917300833229F00E9432
:0A00F400B1000E94B100D6CF0895BC
:1000FE00880F8093720084E08093740010927100D8
:08010E008CE08093700008955D
:10011600880F8093730084EC809374008091740040
:060126008823E4F70895B0
:10012C008093730084E8809374008091740088231A
:04013C00E4F7089547
:1001400081E090E00E947F000E94520080E090E0F9
:02015000089510
:1001520084EA80937400809174008823E4F7089500
:0801620084E980937400089504
:04016A000C940000F1
:00000001FF
